{
  "_format": "hh-sol-artifact-1",
  "contractName": "Gift",
  "sourceName": "contracts/Gift.sol",
  "abi": [
    {
      "anonymous": false,
      "inputs": [
        {
          "indexed": false,
          "internalType": "address",
          "name": "from",
          "type": "address"
        },
        {
          "indexed": false,
          "internalType": "address",
          "name": "to",
          "type": "address"
        },
        {
          "indexed": false,
          "internalType": "uint256",
          "name": "amount",
          "type": "uint256"
        },
        {
          "indexed": false,
          "internalType": "uint256",
          "name": "time",
          "type": "uint256"
        }
      ],
      "name": "grantEvent",
      "type": "event"
    },
    {
      "anonymous": false,
      "inputs": [
        {
          "indexed": false,
          "internalType": "uint256",
          "name": "amount",
          "type": "uint256"
        },
        {
          "indexed": false,
          "internalType": "uint256",
          "name": "time",
          "type": "uint256"
        }
      ],
      "name": "withdrawEvent",
      "type": "event"
    },
    {
      "inputs": [
        {
          "internalType": "address",
          "name": "addr",
          "type": "address"
        }
      ],
      "name": "getGrantAddress",
      "outputs": [
        {
          "internalType": "address[]",
          "name": "",
          "type": "address[]"
        }
      ],
      "stateMutability": "view",
      "type": "function"
    },
    {
      "inputs": [
        {
          "internalType": "address",
          "name": "addr",
          "type": "address"
        }
      ],
      "name": "getGrantTotal",
      "outputs": [
        {
          "internalType": "uint256[]",
          "name": "",
          "type": "uint256[]"
        }
      ],
      "stateMutability": "view",
      "type": "function"
    },
    {
      "inputs": [
        {
          "internalType": "address",
          "name": "recipient",
          "type": "address"
        }
      ],
      "name": "grant",
      "outputs": [],
      "stateMutability": "payable",
      "type": "function"
    },
    {
      "inputs": [
        {
          "internalType": "address",
          "name": "",
          "type": "address"
        }
      ],
      "name": "grantReceived",
      "outputs": [
        {
          "internalType": "uint256",
          "name": "",
          "type": "uint256"
        }
      ],
      "stateMutability": "view",
      "type": "function"
    },
    {
      "inputs": [
        {
          "internalType": "address",
          "name": "",
          "type": "address"
        },
        {
          "internalType": "address",
          "name": "",
          "type": "address"
        }
      ],
      "name": "position",
      "outputs": [
        {
          "internalType": "uint256",
          "name": "",
          "type": "uint256"
        }
      ],
      "stateMutability": "view",
      "type": "function"
    },
    {
      "inputs": [
        {
          "internalType": "uint256",
          "name": "amount",
          "type": "uint256"
        }
      ],
      "name": "withdraw",
      "outputs": [],
      "stateMutability": "payable",
      "type": "function"
    }
  ],
  "bytecode": "0x608060405234801561001057600080fd5b50610ffb806100206000396000f3fe6080604052600436106100545760003560e01c8062c5ed86146100595780632e1a7d4d1461009657806370284d19146100b25780639b19b2ad146100ce578063e9c6b4c11461010b578063e9fb5f4414610148575b600080fd5b34801561006557600080fd5b50610080600480360381019061007b9190610a07565b610185565b60405161008d9190610a4d565b60405180910390f35b6100b060048036038101906100ab9190610a94565b61019d565b005b6100cc60048036038101906100c79190610a07565b610377565b005b3480156100da57600080fd5b506100f560048036038101906100f09190610a07565b610815565b6040516101029190610b7f565b60405180910390f35b34801561011757600080fd5b50610132600480360381019061012d9190610ba1565b6108e5565b60405161013f9190610a4d565b60405180910390f35b34801561015457600080fd5b5061016f600480360381019061016a9190610a07565b61090a565b60405161017c9190610c9f565b60405180910390f35b60006020528060005260406000206000915090505481565b60008060003373ffffffffffffffffffffffffffffffffffffffff1673ffffffffffffffffffffffffffffffffffffffff168152602001908152602001600020541161021e576040517f08c379a000000000000000000000000000000000000000000000000000000000815260040161021590610d1e565b60405180910390fd5b6000803373ffffffffffffffffffffffffffffffffffffffff1673ffffffffffffffffffffffffffffffffffffffff1681526020019081526020016000205481111561029f576040517f08c379a000000000000000000000000000000000000000000000000000000000815260040161029690610d8a565b60405180910390fd5b7f891f5fcb684137d1c72ec3ae0ee3fc08e47d013d6f44645f2abd3486ff16cfb981426040516102d0929190610daa565b60405180910390a1806000803373ffffffffffffffffffffffffffffffffffffffff1673ffffffffffffffffffffffffffffffffffffffff16815260200190815260200160002060008282546103269190610e02565b925050819055503373ffffffffffffffffffffffffffffffffffffffff166108fc829081150290604051600060405180830381858888f19350505050158015610373573d6000803e3d6000fd5b5050565b600034116103ba576040517f08c379a00000000000000000000000000000000000000000000000000000000081526004016103b190610e82565b60405180910390fd5b8073ffffffffffffffffffffffffffffffffffffffff163373ffffffffffffffffffffffffffffffffffffffff1603610428576040517f08c379a000000000000000000000000000000000000000000000000000000000815260040161041f90610eee565b60405180910390fd5b7f6bde23d4b77354bb3083ddaf8818619ef9d8e0b3435e8e50685a7e59c187f1d03382344260405161045d9493929190610f1d565b60405180910390a1346000808373ffffffffffffffffffffffffffffffffffffffff1673ffffffffffffffffffffffffffffffffffffffff16815260200190815260200160002060008282546104b39190610f62565b925050819055506000600160008373ffffffffffffffffffffffffffffffffffffffff1673ffffffffffffffffffffffffffffffffffffffff16815260200190815260200160002060003373ffffffffffffffffffffffffffffffffffffffff1673ffffffffffffffffffffffffffffffffffffffff168152602001908152602001600020540361071557600260008273ffffffffffffffffffffffffffffffffffffffff1673ffffffffffffffffffffffffffffffffffffffff168152602001908152602001600020600001339080600181540180825580915050600190039060005260206000200160009091909190916101000a81548173ffffffffffffffffffffffffffffffffffffffff021916908373ffffffffffffffffffffffffffffffffffffffff160217905550600260008273ffffffffffffffffffffffffffffffffffffffff1673ffffffffffffffffffffffffffffffffffffffff168152602001908152602001600020600101349080600181540180825580915050600190039060005260206000200160009091909190915055600260008273ffffffffffffffffffffffffffffffffffffffff1673ffffffffffffffffffffffffffffffffffffffff16815260200190815260200160002060000180549050600160008373ffffffffffffffffffffffffffffffffffffffff1673ffffffffffffffffffffffffffffffffffffffff16815260200190815260200160002060003373ffffffffffffffffffffffffffffffffffffffff1673ffffffffffffffffffffffffffffffffffffffff16815260200190815260200160002081905550610812565b34600260008373ffffffffffffffffffffffffffffffffffffffff1673ffffffffffffffffffffffffffffffffffffffff16815260200190815260200160002060010160018060008573ffffffffffffffffffffffffffffffffffffffff1673ffffffffffffffffffffffffffffffffffffffff16815260200190815260200160002060003373ffffffffffffffffffffffffffffffffffffffff1673ffffffffffffffffffffffffffffffffffffffff168152602001908152602001600020546107e09190610e02565b815481106107f1576107f0610f96565b5b90600052602060002001600082825461080a9190610f62565b925050819055505b50565b6060600260008373ffffffffffffffffffffffffffffffffffffffff1673ffffffffffffffffffffffffffffffffffffffff1681526020019081526020016000206000018054806020026020016040519081016040528092919081815260200182805480156108d957602002820191906000526020600020905b8160009054906101000a900473ffffffffffffffffffffffffffffffffffffffff1673ffffffffffffffffffffffffffffffffffffffff168152602001906001019080831161088f575b50505050509050919050565b6001602052816000526040600020602052806000526040600020600091509150505481565b6060600260008373ffffffffffffffffffffffffffffffffffffffff1673ffffffffffffffffffffffffffffffffffffffff16815260200190815260200160002060010180548060200260200160405190810160405280929190818152602001828054801561099857602002820191906000526020600020905b815481526020019060010190808311610984575b50505050509050919050565b600080fd5b600073ffffffffffffffffffffffffffffffffffffffff82169050919050565b60006109d4826109a9565b9050919050565b6109e4816109c9565b81146109ef57600080fd5b50565b600081359050610a01816109db565b92915050565b600060208284031215610a1d57610a1c6109a4565b5b6000610a2b848285016109f2565b91505092915050565b6000819050919050565b610a4781610a34565b82525050565b6000602082019050610a626000830184610a3e565b92915050565b610a7181610a34565b8114610a7c57600080fd5b50565b600081359050610a8e81610a68565b92915050565b600060208284031215610aaa57610aa96109a4565b5b6000610ab884828501610a7f565b91505092915050565b600081519050919050565b600082825260208201905092915050565b6000819050602082019050919050565b610af6816109c9565b82525050565b6000610b088383610aed565b60208301905092915050565b6000602082019050919050565b6000610b2c82610ac1565b610b368185610acc565b9350610b4183610add565b8060005b83811015610b72578151610b598882610afc565b9750610b6483610b14565b925050600181019050610b45565b5085935050505092915050565b60006020820190508181036000830152610b998184610b21565b905092915050565b60008060408385031215610bb857610bb76109a4565b5b6000610bc6858286016109f2565b9250506020610bd7858286016109f2565b9150509250929050565b600081519050919050565b600082825260208201905092915050565b6000819050602082019050919050565b610c1681610a34565b82525050565b6000610c288383610c0d565b60208301905092915050565b6000602082019050919050565b6000610c4c82610be1565b610c568185610bec565b9350610c6183610bfd565b8060005b83811015610c92578151610c798882610c1c565b9750610c8483610c34565b925050600181019050610c65565b5085935050505092915050565b60006020820190508181036000830152610cb98184610c41565b905092915050565b600082825260208201905092915050565b7f4e6f206772616e74207965740000000000000000000000000000000000000000600082015250565b6000610d08600c83610cc1565b9150610d1382610cd2565b602082019050919050565b60006020820190508181036000830152610d3781610cfb565b9050919050565b7f4e6f7420656e6f756768206772616e7400000000000000000000000000000000600082015250565b6000610d74601083610cc1565b9150610d7f82610d3e565b602082019050919050565b60006020820190508181036000830152610da381610d67565b9050919050565b6000604082019050610dbf6000830185610a3e565b610dcc6020830184610a3e565b9392505050565b7f4e487b7100000000000000000000000000000000000000000000000000000000600052601160045260246000fd5b6000610e0d82610a34565b9150610e1883610a34565b9250828203905081811115610e3057610e2f610dd3565b5b92915050565b7f496e76616c69642066756e647300000000000000000000000000000000000000600082015250565b6000610e6c600d83610cc1565b9150610e7782610e36565b602082019050919050565b60006020820190508181036000830152610e9b81610e5f565b9050919050565b7f496e76616c696420726563697069656e74000000000000000000000000000000600082015250565b6000610ed8601183610cc1565b9150610ee382610ea2565b602082019050919050565b60006020820190508181036000830152610f0781610ecb565b9050919050565b610f17816109c9565b82525050565b6000608082019050610f326000830187610f0e565b610f3f6020830186610f0e565b610f4c6040830185610a3e565b610f596060830184610a3e565b95945050505050565b6000610f6d82610a34565b9150610f7883610a34565b9250828201905080821115610f9057610f8f610dd3565b5b92915050565b7f4e487b7100000000000000000000000000000000000000000000000000000000600052603260045260246000fdfea2646970667358221220bb1fe445e7966aeec110147f5a464aee2fff6e728b813f15d786b84b553acc7164736f6c63430008110033",
  "linkReferences": {},
  "deployedLinkReferences": {}
}